{
  "_format": "hh-sol-artifact-1",
  "contractName": "CoffeePortal",
  "sourceName": "contracts/CoffeePortal.sol",
  "abi": [
    {
      "inputs": [],
      "stateMutability": "payable",
      "type": "constructor"
    },
    {
      "anonymous": false,
      "inputs": [
        {
          "indexed": true,
          "internalType": "address",
          "name": "from",
          "type": "address"
        },
        {
          "indexed": false,
          "internalType": "uint256",
          "name": "timestamp",
          "type": "uint256"
        },
        {
          "indexed": false,
          "internalType": "string",
          "name": "message",
          "type": "string"
        },
        {
          "indexed": false,
          "internalType": "string",
          "name": "name",
          "type": "string"
        }
      ],
      "name": "NewCoffee",
      "type": "event"
    },
    {
      "inputs": [
        {
          "internalType": "string",
          "name": "_message",
          "type": "string"
        },
        {
          "internalType": "string",
          "name": "_name",
          "type": "string"
        },
        {
          "internalType": "uint256",
          "name": "_payAmount",
          "type": "uint256"
        }
      ],
      "name": "buyCoffee",
      "outputs": [],
      "stateMutability": "payable",
      "type": "function"
    },
    {
      "inputs": [],
      "name": "getAllCoffee",
      "outputs": [
        {
          "components": [
            {
              "internalType": "address",
              "name": "giver",
              "type": "address"
            },
            {
              "internalType": "string",
              "name": "message",
              "type": "string"
            },
            {
              "internalType": "string",
              "name": "name",
              "type": "string"
            },
            {
              "internalType": "uint256",
              "name": "timestamp",
              "type": "uint256"
            }
          ],
          "internalType": "struct CoffeePortal.Coffee[]",
          "name": "",
          "type": "tuple[]"
        }
      ],
      "stateMutability": "view",
      "type": "function"
    },
    {
      "inputs": [],
      "name": "getTotalCoffee",
      "outputs": [
        {
          "internalType": "uint256",
          "name": "",
          "type": "uint256"
        }
      ],
      "stateMutability": "view",
      "type": "function"
    },
    {
      "inputs": [],
      "name": "owner",
      "outputs": [
        {
          "internalType": "address payable",
          "name": "",
          "type": "address"
        }
      ],
      "stateMutability": "view",
      "type": "function"
    }
  ],
  "bytecode": "0x60806040526200004f6040518060400160405280601281526020017f596f2120536d61727420436f6e747261637400000000000000000000000000008152506200009660201b620005d51760201c565b33600160006101000a81548173ffffffffffffffffffffffffffffffffffffffff021916908373ffffffffffffffffffffffffffffffffffffffff1602179055506200022a565b6200013681604051602401620000ad9190620001a3565b6040516020818303038152906040527f41304fac000000000000000000000000000000000000000000000000000000007bffffffffffffffffffffffffffffffffffffffffffffffffffffffff19166020820180517bffffffffffffffffffffffffffffffffffffffffffffffffffffffff83818316178352505050506200013960201b60201c565b50565b60008151905060006a636f6e736f6c652e6c6f679050602083016000808483855afa5050505050565b60006200016f82620001c7565b6200017b8185620001d2565b93506200018d818560208601620001e3565b620001988162000219565b840191505092915050565b60006020820190508181036000830152620001bf818462000162565b905092915050565b600081519050919050565b600082825260208201905092915050565b60005b8381101562000203578082015181840152602081019050620001e6565b8381111562000213576000848401525b50505050565b6000601f19601f8301169050919050565b61106c806200023a6000396000f3fe60806040526004361061003f5760003560e01c8063441315c5146100445780634839ee3f146100605780638da5cb5b1461008b578063d386beca146100b6575b600080fd5b61005e600480360381019061005991906108ef565b6100e1565b005b34801561006c57600080fd5b5061007561039e565b6040516100829190610c9b565b60405180910390f35b34801561009757600080fd5b506100a06103cc565b6040516100ad9190610b9c565b60405180910390f35b3480156100c257600080fd5b506100cb6103f2565b6040516100d89190610bb7565b60405180910390f35b600066038d7ea4c68000905080821115610130576040517f08c379a000000000000000000000000000000000000000000000000000000000815260040161012790610c5b565b60405180910390fd5b60016000808282546101429190610dc2565b925050819055506101886040518060400160405280601a81526020017f257320686173206a7573742073656e74206120636f66666565210000000000008152503361066e565b600260405180608001604052803373ffffffffffffffffffffffffffffffffffffffff16815260200186815260200185815260200142815250908060018154018082558091505060019003906000526020600020906004020160009091909190915060008201518160000160006101000a81548173ffffffffffffffffffffffffffffffffffffffff021916908373ffffffffffffffffffffffffffffffffffffffff160217905550602082015181600101908051906020019061024d9291906107cf565b50604082015181600201908051906020019061026a9291906107cf565b506060820151816003015550506000600160009054906101000a900473ffffffffffffffffffffffffffffffffffffffff1673ffffffffffffffffffffffffffffffffffffffff16836040516102bf90610b87565b60006040518083038185875af1925050503d80600081146102fc576040519150601f19603f3d011682016040523d82523d6000602084013e610301565b606091505b5050905080610345576040517f08c379a000000000000000000000000000000000000000000000000000000000815260040161033c90610c7b565b60405180910390fd5b3373ffffffffffffffffffffffffffffffffffffffff167f5d202edb9ac9aca913189e3c829f7fdbba23859e91379c70ecf7874fe39632a742878760405161038f93929190610cb6565b60405180910390a25050505050565b60006103c46040518060600160405280602181526020016110166021913960005461070a565b600054905090565b600160009054906101000a900473ffffffffffffffffffffffffffffffffffffffff1681565b60606002805480602002602001604051908101604052809291908181526020016000905b828210156105cc57838290600052602060002090600402016040518060800160405290816000820160009054906101000a900473ffffffffffffffffffffffffffffffffffffffff1673ffffffffffffffffffffffffffffffffffffffff1673ffffffffffffffffffffffffffffffffffffffff16815260200160018201805461049f90610ea8565b80601f01602080910402602001604051908101604052809291908181526020018280546104cb90610ea8565b80156105185780601f106104ed57610100808354040283529160200191610518565b820191906000526020600020905b8154815290600101906020018083116104fb57829003601f168201915b5050505050815260200160028201805461053190610ea8565b80601f016020809104026020016040519081016040528092919081815260200182805461055d90610ea8565b80156105aa5780601f1061057f576101008083540402835291602001916105aa565b820191906000526020600020905b81548152906001019060200180831161058d57829003601f168201915b5050505050815260200160038201548152505081526020019060010190610416565b50505050905090565b61066b816040516024016105e99190610bd9565b6040516020818303038152906040527f41304fac000000000000000000000000000000000000000000000000000000007bffffffffffffffffffffffffffffffffffffffffffffffffffffffff19166020820180517bffffffffffffffffffffffffffffffffffffffffffffffffffffffff83818316178352505050506107a6565b50565b6107068282604051602401610684929190610bfb565b6040516020818303038152906040527f319af333000000000000000000000000000000000000000000000000000000007bffffffffffffffffffffffffffffffffffffffffffffffffffffffff19166020820180517bffffffffffffffffffffffffffffffffffffffffffffffffffffffff83818316178352505050506107a6565b5050565b6107a28282604051602401610720929190610c2b565b6040516020818303038152906040527f9710a9d0000000000000000000000000000000000000000000000000000000007bffffffffffffffffffffffffffffffffffffffffffffffffffffffff19166020820180517bffffffffffffffffffffffffffffffffffffffffffffffffffffffff83818316178352505050506107a6565b5050565b60008151905060006a636f6e736f6c652e6c6f679050602083016000808483855afa5050505050565b8280546107db90610ea8565b90600052602060002090601f0160209004810192826107fd5760008555610844565b82601f1061081657805160ff1916838001178555610844565b82800160010185558215610844579182015b82811115610843578251825591602001919060010190610828565b5b5090506108519190610855565b5090565b5b8082111561086e576000816000905550600101610856565b5090565b600061088561088084610d20565b610cfb565b90508281526020810184848401111561089d57600080fd5b6108a8848285610e66565b509392505050565b600082601f8301126108c157600080fd5b81356108d1848260208601610872565b91505092915050565b6000813590506108e981610ffe565b92915050565b60008060006060848603121561090457600080fd5b600084013567ffffffffffffffff81111561091e57600080fd5b61092a868287016108b0565b935050602084013567ffffffffffffffff81111561094757600080fd5b610953868287016108b0565b9250506040610964868287016108da565b9150509250925092565b600061097a8383610aff565b905092915050565b61098b81610e2a565b82525050565b61099a81610e18565b82525050565b6109a981610e18565b82525050565b60006109ba82610d61565b6109c48185610d84565b9350836020820285016109d685610d51565b8060005b85811015610a1257848403895281516109f3858261096e565b94506109fe83610d77565b925060208a019950506001810190506109da565b50829750879550505050505092915050565b6000610a2f82610d6c565b610a398185610da0565b9350610a49818560208601610e75565b610a5281610f98565b840191505092915050565b6000610a6882610d6c565b610a728185610db1565b9350610a82818560208601610e75565b610a8b81610f98565b840191505092915050565b6000610aa3601b83610db1565b9150610aae82610fa9565b602082019050919050565b6000610ac6601483610db1565b9150610ad182610fd2565b602082019050919050565b6000610ae9600083610d95565b9150610af482610ffb565b600082019050919050565b6000608083016000830151610b176000860182610991565b5060208301518482036020860152610b2f8282610a24565b91505060408301518482036040860152610b498282610a24565b9150506060830151610b5e6060860182610b69565b508091505092915050565b610b7281610e5c565b82525050565b610b8181610e5c565b82525050565b6000610b9282610adc565b9150819050919050565b6000602082019050610bb16000830184610982565b92915050565b60006020820190508181036000830152610bd181846109af565b905092915050565b60006020820190508181036000830152610bf38184610a5d565b905092915050565b60006040820190508181036000830152610c158185610a5d565b9050610c2460208301846109a0565b9392505050565b60006040820190508181036000830152610c458185610a5d565b9050610c546020830184610b78565b9392505050565b60006020820190508181036000830152610c7481610a96565b9050919050565b60006020820190508181036000830152610c9481610ab9565b9050919050565b6000602082019050610cb06000830184610b78565b92915050565b6000606082019050610ccb6000830186610b78565b8181036020830152610cdd8185610a5d565b90508181036040830152610cf18184610a5d565b9050949350505050565b6000610d05610d16565b9050610d118282610eda565b919050565b6000604051905090565b600067ffffffffffffffff821115610d3b57610d3a610f69565b5b610d4482610f98565b9050602081019050919050565b6000819050602082019050919050565b600081519050919050565b600081519050919050565b6000602082019050919050565b600082825260208201905092915050565b600081905092915050565b600082825260208201905092915050565b600082825260208201905092915050565b6000610dcd82610e5c565b9150610dd883610e5c565b9250827fffffffffffffffffffffffffffffffffffffffffffffffffffffffffffffffff03821115610e0d57610e0c610f0b565b5b828201905092915050565b6000610e2382610e3c565b9050919050565b6000610e3582610e3c565b9050919050565b600073ffffffffffffffffffffffffffffffffffffffff82169050919050565b6000819050919050565b82818337600083830152505050565b60005b83811015610e93578082015181840152602081019050610e78565b83811115610ea2576000848401525b50505050565b60006002820490506001821680610ec057607f821691505b60208210811415610ed457610ed3610f3a565b5b50919050565b610ee382610f98565b810181811067ffffffffffffffff82111715610f0257610f01610f69565b5b80604052505050565b7f4e487b7100000000000000000000000000000000000000000000000000000000600052601160045260246000fd5b7f4e487b7100000000000000000000000000000000000000000000000000000000600052602260045260246000fd5b7f4e487b7100000000000000000000000000000000000000000000000000000000600052604160045260246000fd5b6000601f19601f8301169050919050565b7f496e73756666696369656e742045746865722070726f76696465640000000000600082015250565b7f4661696c656420746f2073656e64206d6f6e6579000000000000000000000000600082015250565b50565b61100781610e5c565b811461101257600080fd5b5056fe5765206861766520256420746f74616c20636f6666656520726563696576656420a26469706673582212206b5f5ced7a5ccc7ffa6083a3a8bae5323f5895ede7fa694ab9d571a15224708b64736f6c63430008040033",
  "linkReferences": {},
  "deployedLinkReferences": {}
}